:040000000DEF00F010
:040008005BEF00F0BA
:10001800FF00EEEF00F0000EC26E000EC16E000E83
:10002800BE6E000EC36E000EBF6E000EC06E070ED1
:10003800CA6ECB68C668C768C868C9680401186909
:1000480010690869070E206F28690069000E196F8A
:10005800000E296F000E216F000E096F000E016F50
:10006800000E116F000E0201896F000E886F000EDE
:10007800876F000E866F000E0401226F000E2A6F34
:10008800000E026F000E0A6F000E126F000E1A6F3C
:1000980003690B6913691B69070E236F2B690469D0
:1000A8000C6914691C690F0E246F2C691200FAC4BC
:1000B80002F5FBC403F5A1AE64EF00F066EF00F0B3
:1000C8006FEF00F0B1AE6BEF00F06DEF00F06FEF87
:1000D80000F00AEC01F003C5FBF402C5FAF41100C4
:1000E800075008100910D8B47CEF00F07EEF00F03C
:1000F8008BEF00F002D88BEF00F00500FA6E075086
:10010800FD6E0850FE6E0950FF6EFA501200120084
:10011800440E03011B6FF30E196F000E186FB19E8A
:10012800A18E280E046E020E056E000E066EF9EC06
:1001380000F0800E03011A6F1200000E0001606FBC
:10014800000E616F000E636F000E646F000E656F26
:10015800000E666F000E676F000E686F1200C2EC2B
:1001680000F0D68EA20E046E010E056E000E066E0D
:10017800F9EC00F0BEEF00F00DEF00F012EC01F02A
:10018800A1EC00F00FEC00F0E0EC00F006EC01F060
:1001980000EC01F08CEC00F012000A2A0A28D8A41E
:1001A800D8EF00F0DAEF00F0DCEF00F0000E0A6E96
:1001B8000A500EEC01F01200600E0001AD6F000E47
:1001C800AF6F000EB36F020EB16F000EB06F000E6E
:1001D800AC6F12000A6A0401080E5D6F000E5E6FB4
:1001E800000E5F6F0001B3EF00F004C507F505C509
:1001F80008F506C509F51200A80E00017F6F7D0EEF
:100208007D6F1200880E0301D76F1200B19E74EC47
:1002180000F01200016E01C57DF01200D69A12009E
:020228001200C2
:020000040030CA
:08000000ECFFF7FF9FFFFFFF7B
:01000900FFF7
:00000001FF
